:030000000208856E
:0C088500787FE4F6D8FD758109020800B8
:10080000E4F508F50912085E759005120861759007
:100810000612086175900A1208610509E50970025F
:100820000508C39405E5086480948040D8E4F50881
:10083000F509C3E509940AE5086480948050C17500
:10084000900A1208617590061208617590051208E9
:0E0850006112085E0509E50970D8050880D41C
:07085E007590097FC87E00C0
:10086500E4FDFCC3ED9FEC9E5015E4FBFA0BBB00C9
:0F087500010AEB64FA4A70F50DBD00010C80E436
:010884002251
:00000001FF
